:100000000A128A11E62FFF1B0D2883137F1883170E
:100010000008840A0319FF0A080000308A00040857
:10002000840A82070034013400340A340034643412
:100030000034E834033410342734013400341034ED
:10004000003400340134003410343034313432346C
:100050003334343435343634373438343934613425
:10006000623463346434653466340034563469343D
:100070006434253430343234643420340034413430
:1000800074347234253430343234643420340034DF
:1000900056346934643425343034323464340034B2
:1000A00028346E3475346C346C3429340034413463
:1000B0007434253430343234643400344A34753482
:1000C000653467346F340034463469346E34003438
:1000D00047340034523400340134003400340034E6
:1000E000F401F501701C7A287208F4070318F50A68
:1000F0007308F50701300310F20DF30DFF3E031DE9
:100100007B2801300310F10CF00CFF3E031D822808
:1001100070087104031D72287508F1007408F0005E
:100120000800F20083120313061106147208F0008F
:1001300007300310F00CFF3E031D992870080139A9
:10014000F100F10CF10C060871067F39710686008A
:100150007208F00006300310F00CFF3E031DAB28C0
:1001600070080139F100F10EF10DF10D060871066C
:10017000BF39710686007208F00005300310F00CDC
:10018000FF3E031DBE2870080139F100F10EF10D8C
:1001900006087106DF39710686007208F000043027
:1001A0000310F00CFF3E031DD02870080139F10048
:1001B000F10E06087106EF39710686000330F00073
:1001C000F00BE028831203130615E628E728000049
:1001D0008312031306117208F00003300310F00CB1
:1001E000FF3E031DEE2870080139F100F10CF10CFF
:1001F000060871067F39710686007208F000023029
:100200000310F00CFF3E031D002970080139F100B6
:10021000F10EF10DF10D06087106BF397106860069
:100220007208F0000310700C0139F100F10EF10DAD
:1002300006087106DF397106860072080139F00080
:10024000F00E06087006EF39700686000330F000E5
:10025000F00B28298312031306152E292F290000DD
:100260008312031306113429352900000830F100E8
:100270002330F000F00B3A29F10B3A290800C601AF
:10028000C7010730CB000030CC00C401C501D0301D
:10029000BA000730BB000A30A7000030A8000A12DD
:1002A0008A1526260A128A112108AA002008A90008
:1002B0000A128A1569260A128A112708043EDA00F2
:1002C00028080318013E003EDB008316031788014F
:1002D00089010313860103308900313083129000B5
:1002E000C0308B0083160C1483120C1007308F0063
:1002F000D0308E000A128A15B4260A128A110130F3
:100300000A128A1555270A128A110C300A128A1508
:1003100055270A128A11823083120313B600DD308A
:10032000B500B50B9129B60B912936308312031312
:10033000B5003508A0000730A1000030A2003C3015
:100340000A128A116E240A128A110A30B500350881
:10035000F3003C30B6003608F40002300A128A1569
:1003600073250A128A11453083120313B50035082C
:10037000A0000030A100A20048300A128A116E24A9
:100380000A128A11F3014830B5003508F400023032
:100390000A128A1573250A128A1156308312031322
:1003A000B5003508A0002C30A1008030A2005530E7
:1003B0000A128A116E240A128A115A08B5003508E9
:1003C000F3005530B6003608F40001300A128A15E1
:1003D00073250A128A116400831203130C1CE52A88
:1003E0002B30B5003508A0002B30A1008030A200D2
:1003F00052300A128A116E240A128A113808B50086
:100400003508F3005230B6003608F40001300A1205
:100410008A1573250A128A11831203133B088F0071
:100420003A088E000C100A30A7000030A8000A120B
:100430008A1526260A128A112108AA002008A90076
:100440000A128A1569260A128A112708043ED80062
:1004500028080318013E003ED9005808B5003508A9
:10046000F3004F30B6003608F40001300A128A1546
:1004700073250A128A11831203135B085906031DA0
:10048000432A5A0858060319132A5908B90058086C
:10049000B8000130C6070318C70A0030C707563036
:1004A000B5003508A0002C30A1008030A2005530E6
:1004B0000A128A116E240A128A115A08B5003508E8
:1004C000F3005530B6003608F40001300A128A15E0
:1004D00073250A128A11583083120313B5003508A8
:1004E000A0002C30A1008030A2004F300A128A11E7
:1004F0006E240A128A115808B5003508F3004F30EF
:10050000B6003608F40001300A128A1573250A1263
:100510008A11831203134708803AFF0080307F025C
:10052000031D942A04304602031C9A2A83120313E3
:10053000C601C70103308312031346064704031D97
:10054000A72AFF30CB070318CC0AFF30CC07CC1FFB
:10055000C72ACB01CC015230B5003508A0004C3081
:10056000A1008030A2003C300A128A116E240A12C7
:100570008A110A30B5003508F3003C30B600360861
:10058000F40002300A128A1573250A128A112430E7
:1005900083120313B5003508A0004C08A2004B08D5
:1005A000A1003C300A128A116E240A128A110A3004
:1005B000B5003508F3003C30B6003608F4000230D0
:1005C0000A128A1573250A128A1183120313091C51
:1005D000622B0918E92A5B08CE005A08CD002B309F
:1005E000B5003508A0002B30A1008030A2005230A9
:1005F0000A128A116E240A128A114D08B5003508B4
:10060000F3005230B6003608F40001300A128A15A1
:1006100073250A128A11831203135A08FF3EDA0067
:100620005B080318013EFF3EDB005B08803AFF00D9
:1006300080307F02031D1E2B04305A020318262B24
:100640000D3083120313DA000030DB0056308312C2
:100650000313B5003508A0002C30A1008030A200A3
:1006600055300A128A116E240A128A115A08B500EE
:100670003508F3005530B6003608F40001300A1290
:100680008A1573250A128A11583083120313B50094
:100690003508A0002C30A1008030A2004F300A1293
:1006A0008A116E240A128A115808B5003508F30021
:1006B0004F30B6003608F40001300A128A1573254F
:1006C0000A128A1183120313891CFD2B8918662BC9
:1006D0005B08CE005A08CD002B30B5003508A000CD
:1006E0002B30A1008030A20052300A128A116E24F1
:1006F0000A128A114D08B5003508F3005230B600D1
:100700003608F40001300A128A1573250A128A117C
:100710002B3083120313B5003508A0002B30A10045
:100720008030A20052300A128A116E240A128A11F5
:100730004D08B5003508F3005230B6003608F40015
:1007400001300A128A1573250A128A1183120313C3
:100750005A08013EDA005B080318013E003EDB0048
:100760005B08803AFF0080307F02031DB92B0E30FA
:100770005A02031CC12B043083120313DA00003029
:10078000DB00563083120313B5003508A0002C306F
:10079000A1008030A20055300A128A116E240A127C
:1007A0008A115A08B5003508F3005530B6003608EE
:1007B000F40001300A128A1573250A128A11583082
:1007C00083120313B5003508A0002C30A10080303F
:1007D000A2004F300A128A116E240A128A11580898
:1007E000B5003508F3004F30B6003608F40001308C
:1007F0000A128A1573250A128A11831203135B08E1
:100800005906031D052C5A085806031DEB29C6017D
:10081000C70185170B3083120313B7002630B600CB
:100820005D30B500B50B122CB60B122CB70B122C89
:100830008312031385130A30A7000030A8000A12A0
:100840008A1526260A128A112108AA002008A90062
:100850000A128A1569260A128A112708043EDA004C
:1008600028080318013E003EDB005630B50035086D
:10087000A0002C30A1008030A20055300A128A114D
:100880006E240A128A115A08B5003508F300553053
:10089000B6003608F40001300A128A1573250A12D0
:1008A0008A11013083120313C4070318C50A0030EC
:1008B000C5072D30B5003508A0004508A200440842
:1008C000A10048300A128A116E240A128A11F3011B
:1008D0004830B5003508F4000230E629B400213074
:1008E000A3002308A900013083120313A007FF30DF
:1008F000200784000A128A110D200A128A11A3000F
:100900002308B30033080319E12F253033060319F8
:10091000952C3308A3003408840023088313800037
:100920000130A3002308B407732CB101B201AF0159
:10093000B001A12CAF159D2C2F150130A300230869
:10094000A007200884000A128A110D200A128A11B9
:100950002D3A03199A2C1D3A03199C2CAF2CAF1D6C
:10096000B52CFB30AF05FF30B005200884000A121B
:100970008A110D200A128A110A128A1522250A12DA
:100980008A11031CFB2CB101B2010A30F0000030C7
:10099000F1003208F3003108F2000A128A117020C7
:1009A0000A128A117108B2007008B1002008840090
:1009B0000A128A110D200A128A11D03EA300FF30BC
:1009C00003180030A4002308B1070318B20A240852
:1009D000B2070130A3002308A007200884000A12F0
:1009E0008A110D200A128A110A128A1522250A126A
:1009F0008A110318C52C200884000A128A110D20C0
:100A00000A128A112E3A031D352D30170130A3002A
:100A10002308A007AE01200884000A128A110D20C5
:100A20000A128A110A128A1522250A128A11031C37
:100A3000E72D200884000A128A110D200A128A115B
:100A4000A3000A30A4002408F0002E080A128A1518
:100A500030250A128A112307D03EA5002508AE00D2
:100A60000130A3002308A0070B2DAE01E72DAF171F
:100A7000052E2908840083130008A700840A0008B3
:100A80008403A8000230A3002308A907270828042C
:100A9000031D4E2D3E30A7008030A800AA01AB01F7
:100AA0002A082707840028080318280AFF000A12CA
:100AB0008A1103200A128A11003A0319662D0130A7
:100AC000AA070318AB0A0030AB07502D2E080319F4
:100AD0007B2D2E08A300A401A31BA4032B08240232
:100AE000031D742D2A08230203187B2D2E08AA004B
:100AF000AB01AA1BAB0332082B02031D812D310869
:100B00002A0203188A2D2A08B1022B08031CB203FB
:100B1000B2028C2DB101B201AF1D9A2DC02D203033
:100B2000A300340884002308831380000130A3004D
:100B30002308B407FF30B1070318B20AFF30B20729
:100B4000310A031D8F2D320A0319C02D8F2D28085D
:100B5000FF00270884000A128A1103200A128A1152
:100B6000A300340884002308831380000130A70702
:100B70000318A80A0030A8070130A3002308B4070F
:100B80000130AA020030031CAB03AB022A0A031D8A
:100B9000A72D2B0A031DA72DAF19DA2D732C20309A
:100BA000A300340884002308831380000130A300CD
:100BB0002308B407FF30B1070318B20AFF30B207A9
:100BC000310A031DCF2D320A0319732CCF2D0130AA
:100BD000A007FF30200784000A128A110D200A1294
:100BE0008A11B300003A0319E12F643A0319052E64
:100BF0000D3A0319052E193A0319372D033A031933
:100C0000392D0B3A0319372D732CAF1B1F2E2908D2
:100C1000840083130008AC00840A0008AD00023091
:100C2000A3002308A907AD1F2B2E0330AF0400300B
:100C3000B004AC09AD09AC0A0319AD0A2B2E290882
:100C4000840083130008AC00840A0008AD00023061
:100C5000A3002308A9072E08031D7F2E2C082D04AE
:100C6000031D7F2E0130A3002308AE077F2EB301A2
:100C7000B30A3308A3002307013E84000A128A1135
:100C80000D200A128A11A4000A128A110D200A12DC
:100C90008A11A50025082D02031D502E24082C02C0
:100CA000031C882E0130A3002308B3070530330648
:100CB0000319882E392EB301B30A3308A300230782
:100CC0000B3E84000A128A110D200A128A11A40018
:100CD0000A128A110D200A128A11A50025082D0278
:100CE000031D742E24082C02031C882E0130A3003F
:100CF0002308B307043033060319882E5D2E2F080E
:100D00008039003A0319372E803A03195B2E882E5A
:100D10002E08A300A401A31BA4032408803A803C4E
:100D2000031D942E2308330203189D2E83120313F0
:100D30002E08A3002308B300B52E831203132E0838
:100D4000A300A401A31BA4032408803AA5008030BB
:100D50002502031DAD2E330823020318B52E83127E
:100D600003133308A3002308AE00831203133108D2
:100D700032040319C52E2F0803390319C52EFF307D
:100D8000B1070318B20AFF30B207301FEA2E2E084F
:100D9000A300A401A31BA4032408803AA5003208E1
:100DA000803A2502031DD62E310823020318E62EB1
:100DB000831203132E08A300A401A31BA40323087A
:100DC000B1022408031CB203B202EA2E83120313F9
:100DD000B101B2013208803A803C031DF12E310886
:100DE00033020318FF2E831203133308A300A40158
:100DF0002308B1022408031CB203B202032F83129A
:100E00000313B101B2012F1D2A2F2F080339031933
:100E1000142F2D30A300340884002308831380008E
:100E20000130A3002308B407310832040319B52F99
:100E30003030A3003408840023088313800001307D
:100E4000A3002308B407FF30B1070318B20AFF302C
:100E5000B207142F31083204031DAF19442F20307C
:100E6000A300340884002308831380000130A3000A
:100E70002308B407FF30B1070318B20AFF30B207E6
:100E800031083204031D2F2F2F0803390319B52F02
:100E90002D30AB2F0A30F8000030F9002E08A300E7
:100EA0002307013E84000A128A110D200A128A11BA
:100EB000F0000A128A110D200A128A11F1002D0881
:100EC000F3002C08F2000A128A15AB250A128A11C7
:100ED0007108FB007008FA000A128A1541250A12EF
:100EE0008A117808303EA40024089F2F2E08A30002
:100EF00023070B3E84000A128A110D200A128A1160
:100F0000F0000A128A110D200A128A11F1002D0830
:100F1000F3002C08F2000A128A15AB250A128A1176
:100F200070080F39A4002408A6002608133E840088
:100F30000A128A110D200A128A11A3002308B30095
:100F4000AA2F2F088039003A03194A2F803A031933
:100F5000762FAA2F3308A3003408840023088313B4
:100F600080000130A3002308B407FF30A30023084A
:100F7000AE072E0A031DA12FAF1D732C3208803A35
:100F8000FF0080307F02031DC72F01303102031C98
:100F9000732C203083120313A30034088400230829
:100FA000831380000130A3002308B407FF30B1078A
:100FB0000318B20AFF30B207310832040319732C48
:100FC000C92F340884008313800108000A128A1193
:100FD0006C200A128A11DC000A128A116D200A1292
:100FE0008A11DD000A128A116E200A128A11DE00AF
:100FF0000A128A116F20DF0083010A128A113F2929
:101A4400F100F0013A30710203182E2D303071028A
:101A5400031C2E2DF001F00A700C0800F300F201B3
:101A6400731C382D7008F1007108F2070310F00D93
:101A74000310F30C7308031D322D72080800780854
:101A8400790403196E2DFD01FD0AF91B552D013052
:101A94000310F80DF90DFF3E031D4A2D0130FC0023
:101AA4007C08FD07472D79087B02031D5B2D780810
:101AB4007A02031C632D7808FA027908031CFB03DD
:101AC400FB0201300310F90CF80CFF3E031D642DDA
:101AD4000130FD02031D552D7B08F9007A08F8003A
:101AE4000800F600842D7308803E802D7308C03EE4
:101AF400802D7308943E802D7308D43EF50075083C
:101B0400F700922D7608013A0319752D033A03194B
:101B1400782D013A03197B2D073A03197E2D922D56
:101B240077080A128A1555270A128A157408840040
:101B340083130008031908007408840000080A12BB
:101B44008A1191200A128A150130F5007508F407EC
:101B5400982DF501F601700871040319E22DF701BF
:101B6400F70AF11BC12D01300310F00DF10DFF3EFA
:101B7400031DB62D0130F4007408F707B32D0130AE
:101B84000310F50DF60DFF3E031DC22D71087302FF
:101B9400031DCE2D70087202031CD72D7008F202AB
:101BA4007108031CF303F302751401300310F10CE4
:101BB400F00CFF3E031DD82D0130F702031DC12D8B
:101BC4007608F1007508F00008000030FC000030D1
:101BD400FB000030FA000030F900701C052E740878
:101BE400F907750803110318013E031DFA07760867
:101BF40003110318013E031DFB07770803110318A3
:101C0400013E031DFC070130F8000310F40DF50D2F
:101C1400F60DF70DF80B072E01300310F30CF20C40
:101C2400F10CF00CFF3E031D0F2E730872047104B7
:101C34007004031DEF2D7C08F3007B08F2007A0882
:101C4400F1007908F00008005F08F3005E08F20074
:101C54005D08F1005C08F0004130F700C630F60082
:101C64004E30F5006D30F4000A128A15E7250A1289
:101C74008A157308DF007208DE007108DD00700841
:101C8400DC003930DC07303003183130DD07003038
:101C940003180130DE07003003180130DF075C0849
:101CA400A2005D08A3005E08A4005F08A500103030
:101CB400A600250DA50CA40CA30CA20CA60B5B2E50
:101CC400FF302205A0007F302305A1000800AC01ED
:101CD400AA1F732EA909AA09A90A0319AA0AAC0101
:101CE400AC0AA81F7A2EA709A809A70A0319A80AEB
:101CF400270828040319A72EAB01AB0AA81B8E2EB4
:101D040001300310A70DA80DFF3E031D832E0130E3
:101D1400FD007D08AB07802E28082A02031D942E9F
:101D240027082902031C9C2E2708A9022808031C43
:101D3400AA03AA0201300310A80CA70CFF3E031D3E
:101D44009D2E0130AB02031D8E2E2C080319AF2EDD
:101D5400A909AA09A90A0319AA0A2A08A80029088C
:101D6400A7000800831686130613861206120611AE
:101D74000610831286130613861206120611061025
:101D84000830F4002330F300F30BC62EF40BC62EF8
:101D94000830F4002330F300F30BCE2EF40BCE2ED8
:101DA4000830F4002330F300F30BD62EF40BD62EB8
:101DB4000830F4002330F300F30BDE2EF40BDE2E98
:101DC4000830F4002330F300F30BE62EF40BE62E78
:101DD4000830F4002330F300F30BEE2EF40BEE2E58
:101DE400F501F50A831203138613061386160616E5
:101DF4000611061086130613861606160615061017
:101E0400032F042F00008312031386130613861670
:101E14000616061106100830F4002330F300F30B05
:101E2400112FF40B112F0130F3007308F507043060
:101E34007502031CF42E83120313861306138616ED
:101E440006120611061086130613861606120615C8
:101E540006102C2F2D2F0000831203138613061354
:101E640086160612061106100830F4002330F3001B
:101E7400F30B3A2FF40B3A2F28300A128A15552700
:101E84000A128A1510300A128A1555270A128A1561
:101E940001300A128A1555270A128A150F300A12C0
:101EA4008A1555270800F200831203130611061041
:101EB4007208F00007300310F00CFF3E031D5D2F85
:101EC40070080139F100F10CF10C060871067F3934
:101ED400710686007208F00006300310F00CFF3E15
:101EE400031D6F2F70080139F100F10EF10DF10D92
:101EF40006087106BF39710686007208F0000530C5
:101F04000310F00CFF3E031D822F70080139F1000D
:101F1400F10EF10D06087106DF39710686007208AC
:101F2400F00004300310F00CFF3E031D942F7008E2
:101F34000139F100F10E06087106EF3971068600C9
:101F44000330F000F00BA42F831203130615AA2FFD
:101F5400AB2F00008312031306117208F000033044
:101F64000310F00CFF3E031DB22F70080139F1007D
:101F7400F10CF10C060871067F39710686007208AF
:101F8400F00002300310F00CFF3E031DC42F700854
:101F94000139F100F10EF10DF10D06087106BF399A
:101FA400710686007208F0000310700C0139F1000C
:101FB400F10EF10D06087106DF397106860072080C
:101FC4000139F000F00E06087006EF39700686003D
:101FD4000330F000F00BEC2F831203130615F22FDD
:101FE400F32F00008312031306110830F10023308D
:0C1FF400F000F00BFB2FF10BFB2F08009E
:04400E00F4E0FFFFDC
:00000001FF
